:020000040000FA
:1000000080312328003008007E1480310B1F212806
:100010002100111E15282000111E15282100690835
:100020008A0068080A00803121282100911E2128B9
:100030002000911E2128210067088A0066080A0016
:1000400080317E10090080312528C9308400953028
:1000500085006C30860000308700033096312426FE
:1000600080316B30840088308500C43086000030D9
:1000700087001C30963124268031FC0153308400E7
:1000800000308500193096311E268031A030840062
:1000900000308500243096311E26803120308400C7
:1000A00001308500403096311E267E1020008031C0
:1000B00059289731282780318B170B17C230F10050
:1000C0000830F2009531F4258031E730F100173027
:1000D000F2009531EE25803122000C112000E10163
:1000E000D901DA0159088A31EE22803120005908FD
:1000F0008931E821803100302100BB000030BA0096
:100100000030B9000030B80020005D03031D8C28CA
:10011000DD018B31512380319531BD258031003A8D
:10012000031990298931032180312100EB006B08EC
:100130002000E300630889314E218031003A031921
:10014000902920006008031DB02863082100EB00FF
:100150006B082000E20063088931C12180319029B9
:100160006103031D832954306306031D1A290730D8
:100170008A31EE22803115302100EC004B30EB004B
:10018000BE30890BC128EB0BC128EC0BC128000045
:1001900015302100EC004B30EB00BE30890BCE282F
:1001A000EB0BCE28EC0BCE28000015302100EC0024
:1001B0004B30EB00BE30890BDB28EB0BDB28EC0B64
:1001C000DB28000015302100EC004B30EB00BE3086
:1001D000890BE828EB0BE828EC0BE8280000153029
:1001E0002100EC004B30EB00BE30890BF528EB0B07
:1001F000F528EC0BF528000015302100EC004B3001
:10020000EB00BE30890B0229EB0B0229EC0B022913
:1002100000002000E101E00100302100BB000030BF
:10022000BA000030B9000030B800200059088A3107
:10023000EE228031463020006306031D90290030F5
:100240008A31EE22803115302100EC004B30EB007A
:10025000BE30890B2929EB0B2929EC0B2929000039
:1002600015302100EC004B30EB00BE30890B3629F5
:10027000EB0B3629EC0B3629000015302100EC0081
:100280004B30EB00BE30890B4329EB0B4329EC0BC1
:100290004329000015302100EC004B30EB00BE304C
:1002A000890B5029EB0B5029EC0B5029000015301D
:1002B0002100EC004B30EB00BE30890B5D29EB0BCD
:1002C0005D29EC0B5D29000015302100EC004B305E
:1002D000EB00BE30890B6A29EB0B6A29EC0B6A290B
:1002E00000002000E101E00100302100BB000030EF
:1002F000BA000030B9000030B800200059088A3137
:10030000EE228031902954306306031D8B29620848
:100310008E31162680314630200063060319E00135
:10032000883133208031003A031984282000610885
:10033000031D632A6003031DB72901302100B8079C
:100340000030B93D0030BA3D0030BB3D1E303806AC
:1003500039043A043B04031DB7290030BB000030C8
:10036000BA000030B9000030B8002000E0010030D1
:10037000883118208031013A031D5F2A013088310D
:1003800018208031013A031D5F2A01302100C20785
:100390000030C33D08304206073003194306031DF1
:1003A0008428C201C30100302000C8009830C90071
:1003B00097311727803115302100EC004B30EB00CE
:1003C000BE30890BE129EB0BE129EC0BE1290000A0
:1003D00015302100EC004B30EB00BE30890BEE29CC
:1003E000EB0BEE29EC0BEE29000015302100EC00A0
:1003F0004B30EB00BE30890BFB29EB0BFB29EC0BE0
:10040000FB29000015302100EC004B30EB00BE3022
:10041000890B082AEB0B082AEC0B082A0000153080
:100420002100EC004B30EB00BE30890B152AEB0BA2
:10043000152AEC0B152A000015302100EC004B307A
:10044000EB00BE30890B222AEB0B222AEC0B222A6E
:10045000000015302100EC004B30EB00BE30890B62
:100460002F2AEB0B2F2AEC0B2F2A0000153021002E
:10047000EC004B30EB00BE30890B3C2AEB0B3C2AE6
:10048000EC0B3C2A000009302000C8009830C9005D
:100490009731172780312000E101E10AE001E00AED
:1004A00000302100BB000030BA000030B90000303D
:1004B000B80000308A31EE2280312000BA2A2100B3
:1004C000C201C30184286003031D84280130210078
:1004D000B8070030B93D0030BA3D0030BB3D3B08A5
:1004E000031D7B2A3A08031D7B2A30303802753001
:1004F000393B031C9B2A00308A31EE2280312100D7
:100500003B08031D8A2A3A08031D8A2A7D303902D6
:10051000031C84280030BB000030BA000030B90052
:100520000030B800200059088A31EE2280312000C6
:10053000E001E10184280130EB006B082000DE07B8
:100540005F08031DB02A00308A31EE228031C830A6
:1005500020005E06031D8428DE01DF01DF0A8428F7
:1005600003308A31EE228031C83020005E06031D40
:100570008428DE01DF0184282000AD00A801A90144
:10058000AA01AB01A701A401A5012D080319FB2AAB
:100590007B080319FB2A2D08083E86008701811974
:1005A000DF2A7B08083E86008701811DDF2A2D088F
:1005B000083E860087018115A401A40A0F2B7B0841
:1005C000083E860087018119F32A2D08083E86001F
:1005D0008701811DF32A7B08083E8600870181156B
:1005E000A501A50A0F2B2D08083E86008701811959
:1005F0000F2B7B08082B2D08031D012B7B08031DE7
:10060000F92A2D0803190F2B7B08031D0F2B2D082A
:10061000083E8600870181190F2B003008007B08F7
:1006200096317D268231003A0319192B2000A7014B
:10063000A70A2E0012082000A0002008A1002E000A
:1006400013082000A0002008A2002F00130820009B
:10065000A0002008A3009631C426823120002D0876
:100660000319442B2D08043E860087010108FF3E34
:10067000A0002008AC00A60140302E0098002F00FA
:10068000980122001D10562B7B08043E860087012E
:100690000108FF3EA0002008AC00A601A60A2E001B
:1006A000980140302F00980022001D14F201200014
:1006B0002D0884317A248231F201F20A7B088431D8
:1006C0007A248231200069106911E9116E08953190
:1006D000E42582319531C02582312000DB01DC0127
:1006E0002608031D792B111FE910111F752B1113FB
:1006F0007F2B121B7C2BE910121F7C2B1213213035
:10070000A00020082E00980621302000A00020081C
:100710002F009806C0302000A00020082E0094066C
:10072000C0302000A00020082F00940620002C18C4
:10073000DF2B2E001A082000D3072E001B082000F4
:10074000D43D2F001A082000D5072F001B082000D9
:10075000D63D2708031DC42B2E001A0820002A02AC
:10076000F1002E001B0820002B3BF2009731D02710
:10077000823171082000DB077208DC3D2E001B0867
:100780002000AB002E00DB2B2F001A0820002A02CD
:10079000F1002F001B0820002B3BF2009731D027DF
:1007A000823171082000DB077208DC3D2F001B0836
:1007B0002000AB002F001A082000AA00132C2E00E6
:1007C0001A082000D3022E001B082000D43B2F0063
:1007D0001A082000D5022F001B082000D63B27084E
:1007E000031DF92B2E001A0820002802F1002E000C
:1007F000FF2B2F001A0820002802F1002F001B08F1
:100800002000293BF2009731D02782317108200067
:10081000DB077208DC3D2E001B082000A9002E001B
:100820001A082000A8002C08031969140130AC0232
:10083000E91C1C2C69156914E914691C702B95318D
:10084000C3258231200021082E00920020002208BA
:100850002E009300200023082F0093002000691D24
:10086000332CFB300800E91D372CFA30080024082F
:1008700003193F2C2D08083E8600870181112508A9
:100880000319472C7B08083E8600870181112D083B
:100890009631D4268231003A03195B2C20002D08B2
:1008A00096314F268231003A031D5B2C20002D0823
:1008B0008F31762782317B089631D4268231003AF7
:1008C00003196D2C7B0896314F268231003A031DA7
:1008D0006D2C7B088F31762782312E0096012F00F8
:1008E00096012E0097012F0097012E0011102F0066
:1008F00011100D2BF9007908031908007208031D67
:10090000842CF601F701882C8030F6000030F700C7
:100910007608F3007308F800790A86008701010859
:10092000F3007808113EF400F5010730F53D740836
:10093000860075088700730881007908053E8600E7
:1009400087010108F3007808193EF400F50107302B
:10095000F53D7408860075088700730881007808E3
:10096000133EF300F4010730F43D73088600740869
:10097000870050308100FE30F3007808183E860072
:1009800087010730873D73088105790896314F2626
:100990008431003A0319DF2C7908023E8600870172
:1009A0000108F3007808163EF400F5010730F53D24
:1009B000740886007508870073088100F22C780897
:1009C000163EF300F4010730F43D73088600740806
:1009D000870020308100790896313F268431003A23
:1009E0000319042D7908033E860087010108F300EE
:1009F0007808173EF400F5010730F53D74088600CD
:100A00007508870073080F2D7808173EF300F4016E
:100A10000730F43D73088600740887002030810099
:100A20007908043E860087010108F300F4010930CB
:100A3000F335F40D890B182D7235533E860087016E
:100A40007308C03F7408C13F08002000BF0037088A
:100A500086008701403FB900413FBA003908840051
:100A60003A0885001200253A031DAA2D3708860092
:100A700087010130810741310318810AD701D8016C
:100A80002100C001C101FF30BE00FF30BF002000C7
:100A9000370886008701403FB900413FBA00390856
:100AA00084003A0885001200633A031D782D370848
:100AB000860087010130810741310318810A380817
:100AC0008600870101088400850102308107000843
:100AD000B9003908BE003E08B9003908B1003F0826
:100AE0008A31112220003208B8003108B70008000E
:100AF000370886008701403FB900413FBA003908F6
:100B000084003A0885001200253A031D9F2D3708FE
:100B1000860087010130810741310318810A2530A1
:100B2000F4000030F5003F08B9003908F6008B31B9
:100B3000832301302000B7000030B80008003708D8
:100B4000860087010130810741310318810AB7010E
:100B5000B8010800370886008701403FB900413FCF
:100B6000BA00390884003A0885000008BB00BC01BF
:100B70003B08F4003C08F5003F08BD003D08F600C6
:100B80008B318323853120003708860087010130AF
:100B9000810741310318810A992D20002408093E5C
:100BA0008600013087000108803AA50024080E3E27
:100BB0008600013087000103FF3A803AA50203183E
:100BC0000C2E24080A3E8600013087000130810780
:100BD00041310318810A24080A3E8600013087004B
:100BE000403FA500413FA6000030260241300319D6
:100BF0002502031C4E2E24080A3E86000130870081
:100C00000030C03FC13F2408860001308700010842
:100C10008B31B82385314E2E2408093E86000130E1
:100C200087000108A500A601A51BA60324080E3E07
:100C30008600013087002608803A803C031D222E62
:100C4000250801020318452E02302000A5002408C3
:100C5000023E8600013087002508810024080A3EF4
:100C60008600013087000030C03FC13F2408860065
:100C7000013087000108A5002508F40021004B0879
:100C80008A004A080A0086314E2E200024080A3EB7
:100C90008600013087000030C03FC13F200024089B
:100CA0000C3E860001308700013081074131031876
:100CB000810A24080C3E8600013087001600403A65
:100CC000A5001600A504031D080024080C3E86009C
:100CD000013087000030C03FC13F2408873104271E
:100CE00008002000C2004208BF00C001BF35C00D8F
:100CF0002B303F0784009830403D85000008C1003C
:100D00004108C4004208BF00C001BF35C00D2C30EF
:100D10003F0784009830403D85000008C10041082D
:100D2000C5004508BF003F08BB0044088D31582569
:100D300086312000C0004008C300DE2E44089631F2
:100D4000D4268631003A0319BD2E20006A08031DFF
:100D5000AD2E44088931282186312000440896317F
:100D60003826863120004408860087010108BF002C
:100D70003F08F1009531B9258631200045089631AC
:100D8000D4268631003A0319012F20006A08031D7A
:100D9000CD2E45088931282186312000450896311D
:100DA0003826863120004508860087010108BF00EB
:100DB0003F08F1009531B9258631012F4308BF0066
:100DC000C001BF1BC0034008003A0319EB2EFF3AD5
:100DD0000319F02E012F3F08003A03199E2E012F10
:100DE0003F08FB3A0319012F073A0319012F013A73
:100DF0000319012F033A0319012F013A0319012F97
:100E0000012F200043080800F7008B1F4E2F8B1383
:100E10007708053E860001308700403FF100413FE2
:100E2000F200423FF300433FF4000430F436F30C89
:100E3000F20CF10C890B162F7708053E8600013065
:100E400087007108810241317208813B413173088A
:100E5000813B41317408813B7D317708033E860038
:100E600001308700403FF100413FF2007108F3007C
:100E70007208F400F501F6017708053E860001309E
:100E800087007308810741317408813D413175083D
:100E9000813D41317608813D8B1708007708053E7A
:100EA000860001308700403FF100413FF200423FA1
:100EB000F300433FF4000430F436F30CF20CF10C71
:100EC000890B5C2F7708053E86000130870071088A
:100ED000810241317208813B41317308813B4131CC
:100EE0007408813B7D317708033E8600013087001E
:100EF000403FF100413FF2007108F3007208F40036
:100F0000F501F6017708053E860001308700730879
:100F1000810741317408813D41317508813D41317E
:100F20007608813D0800200024080A3E8600013032
:100F30008700403FA500413FA60007302602D03081
:100F400003192502031CBB2F2408860001308700EB
:100F500001088B31B8238731200024088600013036
:100F600087000108A5002508F4006D088A006C08B8
:100F70000A00873108002408093E860001308700F6
:100F80000108803AA50024080E3E86000130870043
:100F900024080E3E84000130850000360102803AAC
:100FA000A502031808002408023E860001308700CD
:100FB0008101810A24080A3E860001308700003042
:100FC000C03FC13F24080C3E860001308700FF303F
:100FD000C03FFB30C13F2408860001308700010874
:100FE000A5002508F4006D088A006C080A00873106
:100FF0000800F1007108083E860087010110080012
:10100000F5007508F3007308F400750886000130D8
:1010100087000108031911280130F3007308F50750
:10102000052874087502F100F201F11BF2030800B3
:10103000F20002307202031831287208F100033006
:10104000F135FF3E031D20287135423E86000130F8
:10105000870002300106031D2F28013008000030F0
:101060000800003008002000EB01EB0A97316227EE
:101070008831003A031D3E28003008009631B4261E
:1010800088318031022088312000C8004808EB00F8
:1010900097313A2788319531C62501300800003054
:1010A000F1009030F2002030F3000030F4004030C6
:1010B0008A313A2288312000A00120088B31B823E0
:1010C00088310130FB007B082000A007023020029D
:1010D000031808005D28B4340D34CD34053493343E
:1010E0000734B8341534B934153400346934303425
:1010F00010342034003400340034003401343534EA
:1011000030341034203400340034003400343730AC
:1011100022008C0060308D00AC308E000830210041
:101120008C0060308D00E2308E00EE3023008E00A7
:1011300040308D0037308C0024008D018C0121005F
:10114000951722009D010800083021006A0203184B
:10115000C02820006708B03E8600870101082300F0
:101160009A000130F00070082000E707083067029D
:101170000318E7010130F00070082100EA070800B9
:10118000111208002100C201C30120006108031DE3
:1011900008007408031DD0280130D9060030DA0693
:1011A0007403031DD7280230D9060030DA06590827
:1011B0008A31EE228831200059088931E82108005F
:1011C000F20021006A080319E128111AEB287208BD
:1011D00023009A00002911127208F100200068080B
:1011E000B03E86008701710881000130F10071086E
:1011F000E807083068020318E80101302100EA021C
:10120000210011160800200065080319032966084B
:10121000A03E860087010108F1007108E40066081D
:10122000A83E860087010108F1007108F200013034
:10123000F1007108E607083066020318E601210094
:10124000911201302000E502210091167208080079
:10125000F70077088A3165228931F5007508F600B4
:101260008B1F41298B137635533E86008701770803
:10127000063E84008501403F803F413F813F8B1700
:1012800008007635533E860087017708063E8400C5
:101290008501403F803F413F813F0800F3005429D2
:1012A00001300800003008007308F100F2017208F4
:1012B000003A03195C2952297108303A0319502960
:1012C000013A03195029033A03195029013A031925
:1012D0005029753A03195029123A03195029013A35
:1012E00003195029522908002000A700A501A601D2
:1012F00025082707A1002108860001308700010882
:10130000A2002208A4002408031908002408A10050
:10131000A2012108F4002208F5002008A3002308F8
:10132000F6008B318323893101302000A50700307E
:10133000A63D7829F3007308023E8600013087003D
:1013400002300106031D080073080A3E86000130C2
:1013500087000130810741310318810A73080A3E72
:1013600086000130870016000104031D0800730881
:101370000A3E860001308700FF30C03FFF30C13F8A
:1013800008002000D200D729E00108002830C8005A
:101390009830C9005208D000D1015008CA00510845
:1013A000CB00973117272000E001E00A080052081F
:1013B000D000D1015108003A0319DF29C62950088D
:1013C000463A0319C429123A0319C429C629080048
:1013D000F300FA2922008C160C16080022008C1645
:1013E0000C12080022008C120C16080022008C122D
:1013F0000C1208007308F100F2017208003A031998
:10140000022A102A7108003A0319EA29013A03193D
:10141000EE29033A0319F229013A0319F629102A91
:1014200008002000B60057085804031D1C2A58085D
:10143000B5005708B400222A5708FF3EB400FF3019
:10144000583DB5003108B30033082200A000A101C7
:1014500020302000B3003308A8003508AA00340863
:10146000A90036088C31B32420002908B2002808CE
:10147000B1000800F9007208F8007108F700790857
:10148000F5007508FA000130F3020030F43B730AEE
:101490000319740A03190800770884007808850086
:1014A0000008F5007508F6000130F7070030F83D38
:1014B0007608F5007A0886000130870075088100FB
:1014C0000130F5007508FA07432AF300F4017408A7
:1014D000F100F201F135F20D2B30710784009830E4
:1014E000723D850000087306031D782A003008004D
:1014F0007408F100F201F135F20D2C30710784000F
:101500009830723D850000087306031D892A01305A
:1015100008000130F1007108F4077408031D762AF1
:10152000672AF900790A860001308700010897319F
:10153000B9278A3175082000A0007608A100A20111
:10154000A3017908053E8600013087002008C03FCE
:101550002108C13F2208C23F2308C33F7908053E46
:10156000860001308700043081354131810D4131E1
:10157000810D4131810D7D31890BB42A0800200095
:10158000C5004108C7004008C6002100BC01BD01DC
:101590002000460884004708850012000319E52A48
:1015A0004630C3004308B7004208C4004408B800EE
:1015B0004508853125258A31200037082100BC07E0
:1015C000200038082100BD3DC82A21003D08200028
:1015D000C10021003C082000C0000800F300082BD7
:1015E0009531D8258A319531D02508009531D825F7
:1015F0008A319531D42508009531DC258A31953121
:10160000D02508009531DC258A319531D425080094
:101610007308F100F2017208003A0319102B1E2B17
:101620007108003A0319F02A013A0319F62A033A1D
:101630000319FC2A013A0319022B1E2B08007C080F
:10164000A03E86008701810123001D1D322B7C08EE
:10165000A03E860087018114210065088A00640885
:101660000A008B3123009D1C402B7C08A03E860085
:1016700087010115210063088A0062080A008B3186
:101680007C08A03E86008701010803194E2B21002B
:1016900061088A0060080A008B3108009731A22790
:1016A00008006E2B1430C8009830C90097311727F6
:1016B00008001930C8009830C90097311727080072
:1016C0001E30C8009830C900973117270800233012
:1016D000C8009830C90097311727080020005A0821
:1016E000003A0319742B822B5908003A0319522B24
:1016F000013A0319592B033A0319602B013A0319D4
:10170000672B822B08007608031D7608031D8C2B9F
:1017100074089531E92508007608033E86008701A4
:10172000160001040319AF2B7608033E86008701DB
:10173000403FF700413FF800760A86008701403FAE
:10174000F900413FFA007A08803AFB007808803AB5
:101750007B02031DAD2B7708790203180800760A77
:10176000860087010130810741310318810A080092
:10177000F9007908F7000330F735FF3E031DBC2B55
:101780007735403EF8007808FA007A08023E860075
:101790000130870081017A08053E8600013087000C
:1017A0000030C03F0030C13FC23FC33F7A080A3E0D
:1017B0008600013087000030C03FC13F7A080C3EF0
:1017C0008600013087000030C03FC13F7A0A8600A2
:1017D0000130870001089631F5260800F9007908E4
:1017E0008A3165228B31F5007508F8007908963149
:1017F000D4268B31003A0319142C7908063E860052
:1018000087017835533E84008501403F0002F10096
:101810000131413F003BF2009731D0278B317208F4
:10182000F7007108F600162CF601F7010030770278
:10183000653003197602031C212C790896312A267B
:1018400008007908963131260800210091121F30D6
:10185000F1000B30F20096310C268C312100111270
:10186000A430F1000830F200963112268C310A3093
:1018700023009F0090309D0024309E0040309B004C
:1018800003309C00B730F1001530F200963100268D
:101890008C31CC30F1001530F200963106268C31B7
:1018A000BA30F1001530F2009531FA252000E4013C
:1018B000E801E7010830F30073082100EA00FC01A9
:1018C0002000E601E501210091160800FB007B08DD
:1018D000023E86000130870001080319A22C7B0814
:1018E000033E860001308700403FF900413FFA0087
:1018F000FA36F90CFA36F90C7B08033E8600013003
:1019000087007908810241317A08813B7F317B0A67
:1019100086000130870001089731B9277508F90062
:101920007608FA00FA36F90CFA36F90C7B08033E11
:101930008600013087007908810741317A08813DAE
:101940007F3108007B0A860001308700010897314B
:10195000B9277B08033E8600013087007508C03F29
:101960007608C13F08002000B0002100401CC12CB7
:1019700020003008AB002B08A00028088931742112
:101980008C312000AA1BC92C2A08AF002908AE0000
:10199000CB2CAE01AF01AC01AD012D08803AAB00FC
:1019A0002F08803A2B02031DD72C2E082C02031877
:1019B000EB2C2030F4000030F50020003008AB00A4
:1019C0002B08F6008B3183238C3101302000AC07CB
:1019D0000030AD3DCD2C21004018F72C2000300800
:1019E000AB002B08A0002808893174218C3120001D
:1019F00028088831002020002E087107A8002F0831
:101A0000723DA90008002000AB002B08A90003309C
:101A1000A935FF3E031D082D2935403EAA002A089E
:101A2000AC002C0A86000130870001089631982608
:101A30008D31003A0319080020002C0A860001307D
:101A40008700010897314D278D31003A03190800AE
:101A500020002C0896318A268D3120002C088E31EA
:101A6000EF268D3120002C08023E860001308700D1
:101A700003300102031C442D2C088600013087002E
:101A800001088B31B8238D3120002C08A9002908CA
:101A9000A4002C08023E8600013087000135C43EB8
:101AA00086008701413F8A00403F0A008D310800CF
:101AB0002000BE000530BC003C08BD003E08031DF0
:101AC0006E2D3B08031D6E2DFF30080001302000F5
:101AD000BD023D08031D6E2DFC3008003B08BC0014
:101AE0003C08FB003E088231BC228D31003A031DC8
:101AF000662D20003E080319812D3E088B31EE2310
:101B00008D3120003B080319892D3B088B31EE23D2
:101B10008D3120003E0896317D268D31003A031923
:101B2000992D20003E0896314F268D31003A031D35
:101B3000A92D20003B0896317D268D31003A0319EE
:101B4000B22D20003B0896314F268D31003A031903
:101B5000B22D20003B08BC003C08AE003E088E3190
:101B60007926080000300800200024080A3E86007C
:101B700001308700403FA500413FA600003026020B
:101B80000930031925020318CA2D24088A3191222D
:101B90008D31CE2D2408873104278D312000240873
:101BA0000A3E860001308700013081074131031869
:101BB000810A24080A3E860001308700403FA500C4
:101BC000413FA60000302602103003192502031CF5
:101BD00008002408053E860001308700403FA5002C
:101BE000413FA600423FA700433FA8000430A8366B
:101BF000A70CA60CA50C890BF72D2408033E860024
:101C0000013087002508C03F2608C13F2408023E56
:101C10008600013087008101810A24080A3E86007F
:101C2000013087000030C03FC13F0800F60000309F
:101C30002100BB000030BA000030B9000030B8000D
:101C40005F2E00308A31EE228E3100308931E8215A
:101C50002000E001D901DA01080001308A31EE22CA
:101C60008E3101308931E8212000E0010130D900B6
:101C70000030DA00080002308A31EE228E31023064
:101C80008931E8212000E0010230D9000030DA007B
:101C9000080003308A31EE228E3103308931E82189
:101CA0002000E0010330D9000030DA0008002000F5
:101CB000E001DD01DD0A08002000E00108007608EF
:101CC000F400F5017508003A0319672E5C2E7408BC
:101CD000303A0319212E013A03192D2E033A031924
:101CE0003B2E013A0319492E663A0319572E5C2EF2
:101CF00008002000B1005C08B0005B08AF00B036FF
:101D0000AF0CB036AF0C5B082F07B2005C08303D5B
:101D1000B3006E08AF002F08B4005408B700530892
:101D2000B6005608B9005508B800BA013A080F3E87
:101D3000840098300318013E85000008AF002F088A
:101D4000EE07AE306E020318A92EAE30AF002F089A
:101D5000EE070530AF002F08B5002E08AF002F08A2
:101D6000FB0031088231BC228E31003A0319C02EAB
:101D700001302000B5023508031DAD2EFC300800EF
:101D800020005C083302031DC72E5B0832020318D3
:101D9000D92E5C08B3005B08B2006E08AF002F08B4
:101DA000B4005408B7005308B6005608B9005508E7
:101DB000B8000130AF002F08BA0705303A02031C03
:101DC000962E3408AF002F08EE003708D4003608EE
:101DD000D3003908D6003808D500003008002000AC
:101DE000A0002008053E860001308700403FF1003A
:101DF000413FF200423FF300433FF4000430F43629
:101E0000F30CF20CF10C890BFF2E2008033E860028
:101E100001308700403FF500413FF6007508F700AC
:101E20007608F800F901FA017108F7027208F83B28
:101E30007308F93B7408FA3B7A08A4007908A300F8
:101E40007808A2007708A1002108F1002208F2001A
:101E50002308F3002408F40020080F3E8600013018
:101E60008700010A372FF437F30CF20CF10C890BC1
:101E7000332F7408A4007308A3007208A20071082D
:101E8000A100A41B582F2408031D502F2308031D55
:101E9000502F2208031D502F80302102031C582F81
:101EA0000030A4000030A3000030A2007F30A10069
:101EB000A41F6C2F80302102FF30223BFF30233BD8
:101EC000FF30243B03186C2FFF30A400FF30A30029
:101ED000FF30A2008030A1002108F1002008093E57
:101EE000860001308700710881000800FA007A0836
:101EF0008A3165228F31F5007508F9007A0896312C
:101F00003F268F31003A031DB52F7935533E8600A9
:101F10008701403FF500413FF6007A08043E860005
:101F200087010108F700F8010930F735F80D890B32
:101F3000952F76087802031D9F2F750877020318E6
:101F4000B12F0130F5007A08053E8600870175083B
:101F500081070F300102031C08007A0896317026B1
:101F600008007A089631702608007A08043E860038
:101F700087010108F500F601F535F60D7A08063EF1
:101F8000860087017935533E84008501403F000279
:101F9000F1000131413F003BF2009731D0278F31F2
:101FA00076087202031DD62F750871020318E42FFC
:101FB0002030F5007A08023E86008701750881000E
:101FC0007A089631582608000230F5007A08033E58
:101FD00086008701750881077A08033E860087011D
:101FE00020300102031C08002030F5007A08023E70
:101FF00086008701750881007A0896315826080006
:10200000003401340034003400340034003400342F
:1020100000340034003400340034003464340134BB
:10202000013400340034003400340034003400340F
:10203000003400340034003400340034643401349B
:102B6E000800080008009731A22708002000650819
:102B7E00080020001C15080020001C1108009731C9
:102B8E008C270800B8341534AE3423001D121D16E0
:102B9E00080022000C148C10080022008C140C105B
:102BAE00080022000E158E11080022008E150E113F
:102BBE0008001630210097000800F100710820006F
:102BCE009B000800F30073088831E02008007208AB
:102BDE002000ED007108EC00080072082100CB0007
:102BEE007108CA00080072082100E1007108E000B7
:102BFE00080072082100E5007108E4000800720860
:102C0E002100E3007108E200080072082100E700CD
:102C1E007108E600080072082100E9007108E8005A
:102C2E000800F0302100990022009601080064008F
:102C3E0080010131890B1F2E0034FE0012001E0090
:102C4E00FE0B252E0034F1007108083E8600870128
:102C5E0081140800F1007108083E8600870181107A
:102C6E000800F1007108083E860087010114080073
:102C7E00F1007108083E86008701010E0139080037
:102C8E00FF3020009B009A01911004309C00080038
:102C9E00F1007108083E86008701010C890C01398C
:102CAE000800F1007108083E8600870101157108C1
:102CBE00083E86008701011208009631A62696313D
:102CCE0088314F20963197313A2796319631C42666
:102CDE000800F1007108083E860087010116710890
:102CEE00033E860087018101810A0800F100710808
:102CFE00031D832E003008007108083E86008701F0
:102D0E00010C013908002000A0008B1F942E8B139C
:102D1E0020088C3166248B17080020088C3166241D
:102D2E000800F6000930F5007508F10076089631B6
:102D3E00E426D63E86008701010801390800FA0113
:102D4E007A089731772796310130F9007908FA071A
:102D5E0002307A0203180800A72E2000AE012E08BA
:102D6E008D310325963101302000AD002D08AE07C0
:102D7E0002302E0203180800B62EFC3020009C05EF
:102D8E002E0091012F00910190302E0092004030C4
:102D9E00940040302F0094000800F20072080319CE
:102DAE00E22E7208083E86008701010CF100F10C3C
:102DBE00710C0139080000300800F400F301741C96
:102DCE00EC2E7108F2007208F3070310F10D0310D8
:102DDE00F40C7408031DE62E73080800F60002308A
:102DEE007602031808000930F5007508F100760820
:102DFE009631E426D63E8600870101110800F600C2
:102E0E0002307602031808000930F5007508F1004B
:102E1E0076089631E426D63E860087018115080095
:102E2E004A302000CC004C08CF004908C1004808A9
:102E3E00C0004F30CC004C08C20000308A31BF2297
:102E4E0008008831872097319631182697319531B1
:102E5E00E02597319631472697318C3125249731CD
:102E6E00963164260800CE30F2007208F300D73097
:102E7E00F20073087202031C080073088731F927E9
:102E8E0097310930F2007208F3073E2FF600023038
:102E9E0076020318602F0930F5007508F1007608E8
:102EAE009631E426D63E86008701010C890C013945
:102EBE000800003008002000C7014708863171263F
:102ECE009731003A03196D2F0030080001302000B1
:102EDE00C6004608C70747080319642F01300800CB
:102EEE00F800780897310627973178089631F5263D
:102EFE0097310930F7007708F10078089631E4260B
:102F0E009731CE3E8731F9270800F5017508F40098
:102F1E000330F435FF3E031D902F7435403E89314A
:102F2E009A2197310130F4007408F50702307502CA
:102F3E00031808008D2F23001908F0007C08A83E06
:102F4E0086008701700881000130F0007008FC07D0
:102F5E0008307C020318FC010130F00070082000DC
:102F6E00E5070800F800023078020318CD2F09306B
:102F7E00F7007708F10078089631E426D43E8600F3
:102F8E008701403FF500413FF6000800F501F601CC
:102F9E0008007208803AF30080307302031DD92FA7
:102FAE0001307102031808007109F3007209F40070
:102FBE00F30A0319F40A7308F1007408F20008000A
:102FCE002100C201C30120006108031D080000306A
:102FDE00883118209731003A031D080001308831DE
:102FEE0018209731003A031D08002000DD01DD0A8C
:102FFE00080050344934433453344D344134523440
:10300E0054340034523455344E340D340A340034B2
:10301E0000340D341C341E341734503449344334C8
:10302E003034003450344934433431340034503465
:10303E004934433432340034503449344334333415
:0C304E000034253463340034D734CE3411
:020000040001F9
:04000E00E4FDFFF717
:00000001FF
